{
  "contractName": "FLTask",
  "abi": [
    {
      "inputs": [],
      "stateMutability": "nonpayable",
      "type": "constructor"
    },
    {
      "inputs": [],
      "name": "requester",
      "outputs": [
        {
          "internalType": "address",
          "name": "",
          "type": "address"
        }
      ],
      "stateMutability": "view",
      "type": "function",
      "constant": true
    },
    {
      "inputs": [],
      "name": "taskStatus",
      "outputs": [
        {
          "internalType": "enum FLTask.TaskStatus",
          "name": "",
          "type": "uint8"
        }
      ],
      "stateMutability": "view",
      "type": "function",
      "constant": true
    },
    {
      "inputs": [
        {
          "internalType": "string",
          "name": "_modelURI",
          "type": "string"
        },
        {
          "internalType": "uint8",
          "name": "_numRounds",
          "type": "uint8"
        }
      ],
      "name": "initializeTask",
      "outputs": [],
      "stateMutability": "payable",
      "type": "function",
      "payable": true
    },
    {
      "inputs": [],
      "name": "startTask",
      "outputs": [],
      "stateMutability": "nonpayable",
      "type": "function"
    },
    {
      "inputs": [],
      "name": "nextRound",
      "outputs": [],
      "stateMutability": "nonpayable",
      "type": "function"
    },
    {
      "inputs": [],
      "name": "getRound",
      "outputs": [
        {
          "internalType": "uint8",
          "name": "",
          "type": "uint8"
        }
      ],
      "stateMutability": "view",
      "type": "function",
      "constant": true
    },
    {
      "inputs": [],
      "name": "getNumWorkers",
      "outputs": [
        {
          "internalType": "uint8",
          "name": "",
          "type": "uint8"
        }
      ],
      "stateMutability": "view",
      "type": "function",
      "constant": true
    },
    {
      "inputs": [],
      "name": "getDeposit",
      "outputs": [
        {
          "internalType": "uint256",
          "name": "",
          "type": "uint256"
        }
      ],
      "stateMutability": "view",
      "type": "function",
      "constant": true
    },
    {
      "inputs": [],
      "name": "getRequester",
      "outputs": [
        {
          "internalType": "address",
          "name": "",
          "type": "address"
        }
      ],
      "stateMutability": "view",
      "type": "function",
      "constant": true
    },
    {
      "inputs": [],
      "name": "getModelURI",
      "outputs": [
        {
          "internalType": "string",
          "name": "",
          "type": "string"
        }
      ],
      "stateMutability": "view",
      "type": "function",
      "constant": true
    },
    {
      "inputs": [],
      "name": "joinTask",
      "outputs": [
        {
          "internalType": "string",
          "name": "",
          "type": "string"
        }
      ],
      "stateMutability": "nonpayable",
      "type": "function"
    },
    {
      "inputs": [],
      "name": "removeWorker",
      "outputs": [],
      "stateMutability": "nonpayable",
      "type": "function"
    },
    {
      "inputs": [
        {
          "internalType": "address[]",
          "name": "_workers",
          "type": "address[]"
        },
        {
          "internalType": "uint16[]",
          "name": "_scores",
          "type": "uint16[]"
        }
      ],
      "name": "submitScore",
      "outputs": [],
      "stateMutability": "nonpayable",
      "type": "function"
    },
    {
      "inputs": [],
      "name": "getSubmissionsNumber",
      "outputs": [
        {
          "internalType": "uint8",
          "name": "",
          "type": "uint8"
        }
      ],
      "stateMutability": "view",
      "type": "function",
      "constant": true
    },
    {
      "inputs": [],
      "name": "getSubmissions",
      "outputs": [
        {
          "components": [
            {
              "internalType": "address",
              "name": "workerAddress",
              "type": "address"
            },
            {
              "internalType": "address[]",
              "name": "addressScored",
              "type": "address[]"
            },
            {
              "internalType": "uint16[]",
              "name": "scores",
              "type": "uint16[]"
            }
          ],
          "internalType": "struct FLTask.SubmittedEval[]",
          "name": "",
          "type": "tuple[]"
        }
      ],
      "stateMutability": "view",
      "type": "function",
      "constant": true
    },
    {
      "inputs": [
        {
          "internalType": "address[]",
          "name": "_topK",
          "type": "address[]"
        }
      ],
      "name": "submitRoundTopK",
      "outputs": [],
      "stateMutability": "nonpayable",
      "type": "function"
    },
    {
      "inputs": [],
      "name": "distributeRewards",
      "outputs": [],
      "stateMutability": "payable",
      "type": "function",
      "payable": true
    }
  ],
  "bytecode": "0x60a060405260008060026101000a81548160ff021916908360ff16021790555034801561002b57600080fd5b503373ffffffffffffffffffffffffffffffffffffffff1660808173ffffffffffffffffffffffffffffffffffffffff16815250506000600660006101000a81548160ff0219169083600481111561008657610085610090565b5b02179055506100bf565b7f4e487b7100000000000000000000000000000000000000000000000000000000600052602160045260246000fd5b60805161298162000128600039600081816105590152818161063001528181610783015281816108bf01528181610bf601528181610ec4015281816110e401528181611305015281816113cf015281816114bb015281816115dc015261160201526129816000f3fe6080604052600436106100fe5760003560e01c8063965076a811610095578063bbbb77fb11610064578063bbbb77fb146102ad578063c399ec88146102c4578063c7e0758f146102ef578063cd1e07171461031a578063d5964a4814610345576100fe565b8063965076a8146102015780639f8743f71461022c578063a59aa9de14610257578063b61e96a514610282576100fe565b806347e40553116100d157806347e405531461018a57806354f6aa20146101a15780636f4a2cd0146101cc578063852649c5146101d6576100fe565b80630961bc68146101035780631601e7951461012c5780632563d4b7146101575780632f89c48a1461016e575b600080fd5b34801561010f57600080fd5b5061012a60048036038101906101259190611c68565b61036e565b005b34801561013857600080fd5b50610141610544565b60405161014e9190611d57565b60405180910390f35b34801561016357600080fd5b5061016c610557565b005b61018860048036038101906101839190611e60565b61062e565b005b34801561019657600080fd5b5061019f610781565b005b3480156101ad57600080fd5b506101b66108bb565b6040516101c39190612151565b60405180910390f35b6101d4610bf4565b005b3480156101e257600080fd5b506101eb610ec0565b6040516101f89190612182565b60405180910390f35b34801561020d57600080fd5b50610216610f5b565b6040516102239190612182565b60405180910390f35b34801561023857600080fd5b50610241610f71565b60405161024e9190612182565b60405180910390f35b34801561026357600080fd5b5061026c610fec565b6040516102799190612225565b60405180910390f35b34801561028e57600080fd5b50610297611303565b6040516102a49190612256565b60405180910390f35b3480156102b957600080fd5b506102c2611327565b005b3480156102d057600080fd5b506102d96113cb565b6040516102e6919061228a565b60405180910390f35b3480156102fb57600080fd5b50610304611461565b6040516103119190612225565b60405180910390f35b34801561032657600080fd5b5061032f6115d8565b60405161033c9190612256565b60405180910390f35b34801561035157600080fd5b5061036c600480360381019061036791906122a5565b611600565b005b600160003373ffffffffffffffffffffffffffffffffffffffff1673ffffffffffffffffffffffffffffffffffffffff16815260200190815260200160002060000160009054906101000a900460ff166103fd576040517f08c379a00000000000000000000000000000000000000000000000000000000081526004016103f490612360565b60405180910390fd5b6002600660009054906101000a900460ff16600481111561042157610420611ce0565b5b14610461576040517f08c379a0000000000000000000000000000000000000000000000000000000008152600401610458906123cc565b60405180910390fd5b600260405180606001604052803373ffffffffffffffffffffffffffffffffffffffff16815260200184815260200183815250908060018154018082558091505060019003906000526020600020906003020160009091909190915060008201518160000160006101000a81548173ffffffffffffffffffffffffffffffffffffffff021916908373ffffffffffffffffffffffffffffffffffffffff16021790555060208201518160010190805190602001906105209291906116a8565b50604082015181600201908051906020019061053d929190611732565b5050505050565b600660009054906101000a900460ff1681565b7f000000000000000000000000000000000000000000000000000000000000000073ffffffffffffffffffffffffffffffffffffffff163373ffffffffffffffffffffffffffffffffffffffff16146105e5576040517f08c379a00000000000000000000000000000000000000000000000000000000081526004016105dc9061245e565b60405180910390fd5b6002600660006101000a81548160ff0219169083600481111561060b5761060a611ce0565b5b02179055506001600060016101000a81548160ff021916908360ff160217905550565b7f000000000000000000000000000000000000000000000000000000000000000073ffffffffffffffffffffffffffffffffffffffff163373ffffffffffffffffffffffffffffffffffffffff16146106bc576040517f08c379a00000000000000000000000000000000000000000000000000000000081526004016106b39061245e565b60405180910390fd5b600034036106ff576040517f08c379a00000000000000000000000000000000000000000000000000000000081526004016106f6906124f0565b60405180910390fd5b81600490805190602001906107159291906117dc565b50806000806101000a81548160ff021916908360ff16021790555060008054906101000a900460ff1660ff163461074c919061256e565b6005819055506001600660006101000a81548160ff0219169083600481111561077857610777611ce0565b5b02179055505050565b7f000000000000000000000000000000000000000000000000000000000000000073ffffffffffffffffffffffffffffffffffffffff163373ffffffffffffffffffffffffffffffffffffffff161461080f576040517f08c379a00000000000000000000000000000000000000000000000000000000081526004016108069061245e565b60405180910390fd5b6002600660009054906101000a900460ff16600481111561083357610832611ce0565b5b14610873576040517f08c379a000000000000000000000000000000000000000000000000000000000815260040161086a906123cc565b60405180910390fd5b600260006108819190611862565b6000600181819054906101000a900460ff16809291906108a09061259f565b91906101000a81548160ff021916908360ff16021790555050565b60607f000000000000000000000000000000000000000000000000000000000000000073ffffffffffffffffffffffffffffffffffffffff163373ffffffffffffffffffffffffffffffffffffffff161461094b576040517f08c379a00000000000000000000000000000000000000000000000000000000081526004016109429061245e565b60405180910390fd5b6002600660009054906101000a900460ff16600481111561096f5761096e611ce0565b5b146109af576040517f08c379a00000000000000000000000000000000000000000000000000000000081526004016109a6906123cc565b60405180910390fd5b60006109b9610ec0565b60ff1667ffffffffffffffff8111156109d5576109d46119ca565b5b604051908082528060200260200182016040528015610a0e57816020015b6109fb611886565b8152602001906001900390816109f35790505b50905060005b6002805490508160ff161015610bec5760028160ff1681548110610a3b57610a3a6125c8565b5b90600052602060002090600302016040518060600160405290816000820160009054906101000a900473ffffffffffffffffffffffffffffffffffffffff1673ffffffffffffffffffffffffffffffffffffffff1673ffffffffffffffffffffffffffffffffffffffff16815260200160018201805480602002602001604051908101604052809291908181526020018280548015610b2f57602002820191906000526020600020905b8160009054906101000a900473ffffffffffffffffffffffffffffffffffffffff1673ffffffffffffffffffffffffffffffffffffffff1681526020019060010190808311610ae5575b5050505050815260200160028201805480602002602001604051908101604052809291908181526020018280548015610baf57602002820191906000526020600020906000905b82829054906101000a900461ffff1661ffff1681526020019060020190602082600101049283019260010382029150808411610b765790505b505050505081525050828260ff1681518110610bce57610bcd6125c8565b5b60200260200101819052508080610be49061259f565b915050610a14565b508091505090565b7f000000000000000000000000000000000000000000000000000000000000000073ffffffffffffffffffffffffffffffffffffffff163373ffffffffffffffffffffffffffffffffffffffff1614610c82576040517f08c379a0000000000000000000000000000000000000000000000000000000008152600401610c799061245e565b60405180910390fd5b600060055490506000600380549050905060005b600382610ca391906125f7565b60ff168160ff161015610d665760038160ff1681548110610cc757610cc66125c8565b5b9060005260206000200160009054906101000a900473ffffffffffffffffffffffffffffffffffffffff1673ffffffffffffffffffffffffffffffffffffffff166108fc600285610d18919061256e565b9081150290604051600060405180830381858888f19350505050158015610d43573d6000803e3d6000fd5b50600283610d51919061256e565b92508080610d5e9061259f565b915050610c96565b600283610d73919061256e565b925060008260ff1684610d86919061256e565b905060038260ff1681548110610d9f57610d9e6125c8565b5b9060005260206000200160009054906101000a900473ffffffffffffffffffffffffffffffffffffffff1673ffffffffffffffffffffffffffffffffffffffff166108fc8286610def919061262b565b9081150290604051600060405180830381858888f19350505050158015610e1a573d6000803e3d6000fd5b506003600183610e2a9190612681565b60ff1681548110610e3e57610e3d6125c8565b5b9060005260206000200160009054906101000a900473ffffffffffffffffffffffffffffffffffffffff1673ffffffffffffffffffffffffffffffffffffffff166108fc8286610e8e91906126b8565b9081150290604051600060405180830381858888f19350505050158015610eb9573d6000803e3d6000fd5b5050505050565b60007f000000000000000000000000000000000000000000000000000000000000000073ffffffffffffffffffffffffffffffffffffffff163373ffffffffffffffffffffffffffffffffffffffff1614610f50576040517f08c379a0000000000000000000000000000000000000000000000000000000008152600401610f479061245e565b60405180910390fd5b600280549050905090565b60008060029054906101000a900460ff16905090565b60006002600660009054906101000a900460ff166004811115610f9757610f96611ce0565b5b14610fd7576040517f08c379a0000000000000000000000000000000000000000000000000000000008152600401610fce906123cc565b60405180910390fd5b600060019054906101000a900460ff16905090565b60606001600660009054906101000a900460ff16600481111561101257611011611ce0565b5b14611052576040517f08c379a000000000000000000000000000000000000000000000000000000000815260040161104990612738565b60405180910390fd5b600160003373ffffffffffffffffffffffffffffffffffffffff1673ffffffffffffffffffffffffffffffffffffffff16815260200190815260200160002060000160009054906101000a900460ff16156110e2576040517f08c379a00000000000000000000000000000000000000000000000000000000081526004016110d9906127a4565b60405180910390fd5b7f000000000000000000000000000000000000000000000000000000000000000073ffffffffffffffffffffffffffffffffffffffff163373ffffffffffffffffffffffffffffffffffffffff1603611170576040517f08c379a000000000000000000000000000000000000000000000000000000000815260040161116790612810565b60405180910390fd5b6111786118bd565b60018160000190151590811515815250506001600060029054906101000a900460ff166111a59190612681565b816020019060ff16908160ff168152505080600160003373ffffffffffffffffffffffffffffffffffffffff1673ffffffffffffffffffffffffffffffffffffffff16815260200190815260200160002060008201518160000160006101000a81548160ff02191690831515021790555060208201518160000160016101000a81548160ff021916908360ff1602179055509050506000600281819054906101000a900460ff16809291906112599061259f565b91906101000a81548160ff021916908360ff160217905550506004805461127f9061285f565b80601f01602080910402602001604051908101604052809291908181526020018280546112ab9061285f565b80156112f85780601f106112cd576101008083540402835291602001916112f8565b820191906000526020600020905b8154815290600101906020018083116112db57829003601f168201915b505050505091505090565b7f000000000000000000000000000000000000000000000000000000000000000081565b600160003373ffffffffffffffffffffffffffffffffffffffff1673ffffffffffffffffffffffffffffffffffffffff168152602001908152602001600020600080820160006101000a81549060ff02191690556000820160016101000a81549060ff021916905550506000600281819054906101000a900460ff16809291906113b090612890565b91906101000a81548160ff021916908360ff16021790555050565b60007f000000000000000000000000000000000000000000000000000000000000000073ffffffffffffffffffffffffffffffffffffffff163373ffffffffffffffffffffffffffffffffffffffff161461145b576040517f08c379a00000000000000000000000000000000000000000000000000000000081526004016114529061245e565b60405180910390fd5b47905090565b6060600160003373ffffffffffffffffffffffffffffffffffffffff1673ffffffffffffffffffffffffffffffffffffffff16815260200190815260200160002060000160009054906101000a900460ff168061150957507f000000000000000000000000000000000000000000000000000000000000000073ffffffffffffffffffffffffffffffffffffffff163373ffffffffffffffffffffffffffffffffffffffff16145b611548576040517f08c379a000000000000000000000000000000000000000000000000000000000815260040161153f9061292b565b60405180910390fd5b600480546115559061285f565b80601f01602080910402602001604051908101604052809291908181526020018280546115819061285f565b80156115ce5780601f106115a3576101008083540402835291602001916115ce565b820191906000526020600020905b8154815290600101906020018083116115b157829003601f168201915b5050505050905090565b60007f0000000000000000000000000000000000000000000000000000000000000000905090565b7f000000000000000000000000000000000000000000000000000000000000000073ffffffffffffffffffffffffffffffffffffffff163373ffffffffffffffffffffffffffffffffffffffff161461168e576040517f08c379a00000000000000000000000000000000000000000000000000000000081526004016116859061245e565b60405180910390fd5b80600390805190602001906116a49291906116a8565b5050565b828054828255906000526020600020908101928215611721579160200282015b828111156117205782518260006101000a81548173ffffffffffffffffffffffffffffffffffffffff021916908373ffffffffffffffffffffffffffffffffffffffff160217905550916020019190600101906116c8565b5b50905061172e91906118dc565b5090565b82805482825590600052602060002090600f016010900481019282156117cb5791602002820160005b8382111561179b57835183826101000a81548161ffff021916908361ffff160217905550926020019260020160208160010104928301926001030261175b565b80156117c95782816101000a81549061ffff021916905560020160208160010104928301926001030261179b565b505b5090506117d891906118dc565b5090565b8280546117e89061285f565b90600052602060002090601f01602090048101928261180a5760008555611851565b82601f1061182357805160ff1916838001178555611851565b82800160010185558215611851579182015b82811115611850578251825591602001919060010190611835565b5b50905061185e91906118dc565b5090565b508054600082556003029060005260206000209081019061188391906118f9565b50565b6040518060600160405280600073ffffffffffffffffffffffffffffffffffffffff16815260200160608152602001606081525090565b6040518060400160405280600015158152602001600060ff1681525090565b5b808211156118f55760008160009055506001016118dd565b5090565b5b8082111561195357600080820160006101000a81549073ffffffffffffffffffffffffffffffffffffffff021916905560018201600061193a9190611957565b60028201600061194a9190611978565b506003016118fa565b5090565b508054600082559060005260206000209081019061197591906118dc565b50565b50805460008255600f01601090049060005260206000209081019061199d91906118dc565b50565b6000604051905090565b600080fd5b600080fd5b600080fd5b6000601f19601f8301169050919050565b7f4e487b7100000000000000000000000000000000000000000000000000000000600052604160045260246000fd5b611a02826119b9565b810181811067ffffffffffffffff82111715611a2157611a206119ca565b5b80604052505050565b6000611a346119a0565b9050611a4082826119f9565b919050565b600067ffffffffffffffff821115611a6057611a5f6119ca565b5b602082029050602081019050919050565b600080fd5b600073ffffffffffffffffffffffffffffffffffffffff82169050919050565b6000611aa182611a76565b9050919050565b611ab181611a96565b8114611abc57600080fd5b50565b600081359050611ace81611aa8565b92915050565b6000611ae7611ae284611a45565b611a2a565b90508083825260208201905060208402830185811115611b0a57611b09611a71565b5b835b81811015611b335780611b1f8882611abf565b845260208401935050602081019050611b0c565b5050509392505050565b600082601f830112611b5257611b516119b4565b5b8135611b62848260208601611ad4565b91505092915050565b600067ffffffffffffffff821115611b8657611b856119ca565b5b602082029050602081019050919050565b600061ffff82169050919050565b611bae81611b97565b8114611bb957600080fd5b50565b600081359050611bcb81611ba5565b92915050565b6000611be4611bdf84611b6b565b611a2a565b90508083825260208201905060208402830185811115611c0757611c06611a71565b5b835b81811015611c305780611c1c8882611bbc565b845260208401935050602081019050611c09565b5050509392505050565b600082601f830112611c4f57611c4e6119b4565b5b8135611c5f848260208601611bd1565b91505092915050565b60008060408385031215611c7f57611c7e6119aa565b5b600083013567ffffffffffffffff811115611c9d57611c9c6119af565b5b611ca985828601611b3d565b925050602083013567ffffffffffffffff811115611cca57611cc96119af565b5b611cd685828601611c3a565b9150509250929050565b7f4e487b7100000000000000000000000000000000000000000000000000000000600052602160045260246000fd5b60058110611d2057611d1f611ce0565b5b50565b6000819050611d3182611d0f565b919050565b6000611d4182611d23565b9050919050565b611d5181611d36565b82525050565b6000602082019050611d6c6000830184611d48565b92915050565b600080fd5b600067ffffffffffffffff821115611d9257611d916119ca565b5b611d9b826119b9565b9050602081019050919050565b82818337600083830152505050565b6000611dca611dc584611d77565b611a2a565b905082815260208101848484011115611de657611de5611d72565b5b611df1848285611da8565b509392505050565b600082601f830112611e0e57611e0d6119b4565b5b8135611e1e848260208601611db7565b91505092915050565b600060ff82169050919050565b611e3d81611e27565b8114611e4857600080fd5b50565b600081359050611e5a81611e34565b92915050565b60008060408385031215611e7757611e766119aa565b5b600083013567ffffffffffffffff811115611e9557611e946119af565b5b611ea185828601611df9565b9250506020611eb285828601611e4b565b9150509250929050565b600081519050919050565b600082825260208201905092915050565b6000819050602082019050919050565b611ef181611a96565b82525050565b600081519050919050565b600082825260208201905092915050565b6000819050602082019050919050565b6000611f2f8383611ee8565b60208301905092915050565b6000602082019050919050565b6000611f5382611ef7565b611f5d8185611f02565b9350611f6883611f13565b8060005b83811015611f99578151611f808882611f23565b9750611f8b83611f3b565b925050600181019050611f6c565b5085935050505092915050565b600081519050919050565b600082825260208201905092915050565b6000819050602082019050919050565b611fdb81611b97565b82525050565b6000611fed8383611fd2565b60208301905092915050565b6000602082019050919050565b600061201182611fa6565b61201b8185611fb1565b935061202683611fc2565b8060005b8381101561205757815161203e8882611fe1565b975061204983611ff9565b92505060018101905061202a565b5085935050505092915050565b600060608301600083015161207c6000860182611ee8565b50602083015184820360208601526120948282611f48565b915050604083015184820360408601526120ae8282612006565b9150508091505092915050565b60006120c78383612064565b905092915050565b6000602082019050919050565b60006120e782611ebc565b6120f18185611ec7565b93508360208202850161210385611ed8565b8060005b8581101561213f578484038952815161212085826120bb565b945061212b836120cf565b925060208a01995050600181019050612107565b50829750879550505050505092915050565b6000602082019050818103600083015261216b81846120dc565b905092915050565b61217c81611e27565b82525050565b60006020820190506121976000830184612173565b92915050565b600081519050919050565b600082825260208201905092915050565b60005b838110156121d75780820151818401526020810190506121bc565b838111156121e6576000848401525b50505050565b60006121f78261219d565b61220181856121a8565b93506122118185602086016121b9565b61221a816119b9565b840191505092915050565b6000602082019050818103600083015261223f81846121ec565b905092915050565b61225081611a96565b82525050565b600060208201905061226b6000830184612247565b92915050565b6000819050919050565b61228481612271565b82525050565b600060208201905061229f600083018461227b565b92915050565b6000602082840312156122bb576122ba6119aa565b5b600082013567ffffffffffffffff8111156122d9576122d86119af565b5b6122e584828501611b3d565b91505092915050565b7f54686973206f7065726174696f6e2063616e20626520706572666f726d65642060008201527f6f6e6c7920627920746865207461736b20776f726b6572730000000000000000602082015250565b600061234a6038836121a8565b9150612355826122ee565b604082019050919050565b600060208201905081810360008301526123798161233d565b9050919050565b7f5461736b206e6f742072756e6e696e6700000000000000000000000000000000600082015250565b60006123b66010836121a8565b91506123c182612380565b602082019050919050565b600060208201905081810360008301526123e5816123a9565b9050919050565b7f54686973206f7065726174696f6e2063616e20626520706572666f726d65642060008201527f6f6e6c7920627920746865207461736b20726571756573746572000000000000602082015250565b6000612448603a836121a8565b9150612453826123ec565b604082019050919050565b600060208201905081810360008301526124778161243b565b9050919050565b7f43616e6e6f7420696e697469616c697a6520636f6e747261637420776974686f60008201527f7574206465706f73697400000000000000000000000000000000000000000000602082015250565b60006124da602a836121a8565b91506124e58261247e565b604082019050919050565b60006020820190508181036000830152612509816124cd565b9050919050565b7f4e487b7100000000000000000000000000000000000000000000000000000000600052601260045260246000fd5b7f4e487b7100000000000000000000000000000000000000000000000000000000600052601160045260246000fd5b600061257982612271565b915061258483612271565b92508261259457612593612510565b5b828204905092915050565b60006125aa82611e27565b915060ff82036125bd576125bc61253f565b5b600182019050919050565b7f4e487b7100000000000000000000000000000000000000000000000000000000600052603260045260246000fd5b600061260282611e27565b915061260d83611e27565b9250828210156126205761261f61253f565b5b828203905092915050565b600061263682612271565b915061264183612271565b9250827fffffffffffffffffffffffffffffffffffffffffffffffffffffffffffffffff038211156126765761267561253f565b5b828201905092915050565b600061268c82611e27565b915061269783611e27565b92508260ff038211156126ad576126ac61253f565b5b828201905092915050565b60006126c382612271565b91506126ce83612271565b9250828210156126e1576126e061253f565b5b828203905092915050565b7f5461736b206e6f7420696e697469616c697a6564000000000000000000000000600082015250565b60006127226014836121a8565b915061272d826126ec565b602082019050919050565b6000602082019050818103600083015261275181612715565b9050919050565b7f576f726b657220697320616c7265616479207265676973746572656400000000600082015250565b600061278e601c836121a8565b915061279982612758565b602082019050919050565b600060208201905081810360008301526127bd81612781565b9050919050565b7f5265717565737465722063616e6e6f74206265206120776f726b657221000000600082015250565b60006127fa601d836121a8565b9150612805826127c4565b602082019050919050565b60006020820190508181036000830152612829816127ed565b9050919050565b7f4e487b7100000000000000000000000000000000000000000000000000000000600052602260045260246000fd5b6000600282049050600182168061287757607f821691505b60208210810361288a57612889612830565b5b50919050565b600061289b82611e27565b9150600082036128ae576128ad61253f565b5b600182039050919050565b7f596f7520646f206e6f742068617665207468652072696768747320746f20706560008201527f72666f726d2074686973206f7065726174696f6e000000000000000000000000602082015250565b60006129156034836121a8565b9150612920826128b9565b604082019050919050565b6000602082019050818103600083015261294481612908565b905091905056fea2646970667358221220273f021b160e3a99589d9f9796dc4abcd816108e8389cfd78a4b7cdcd22f1ac564736f6c634300080d0033",
  "immutableReferences": {
    "42": [
      {
        "length": 32,
        "start": 1369
      },
      {
        "length": 32,
        "start": 1584
      },
      {
        "length": 32,
        "start": 1923
      },
      {
        "length": 32,
        "start": 2239
      },
      {
        "length": 32,
        "start": 3062
      },
      {
        "length": 32,
        "start": 3780
      },
      {
        "length": 32,
        "start": 4324
      },
      {
        "length": 32,
        "start": 4869
      },
      {
        "length": 32,
        "start": 5071
      },
      {
        "length": 32,
        "start": 5307
      },
      {
        "length": 32,
        "start": 5596
      },
      {
        "length": 32,
        "start": 5634
      }
    ]
  },
  "source": "// SPDX-License-Identifier: MIT\r\npragma solidity >=0.4.22 <0.9.0;\r\n\r\n// Smart contract representing a FL task\r\ncontract FLTask {\r\n    // Representing the status of the task\r\n    // Pending: invalid status, created when the smart contract is deployed\r\n    // Initialized: the task is ready to be joined by workers\r\n    // Running, Completed, Canceled: self-explanatory\r\n    enum TaskStatus {    \r\n        Pending, \r\n        Initialized, \r\n        Running,\r\n        Completed,\r\n        Canceled\r\n    }\r\n\r\n    //Struct representing a wokrer of the task, still under development\r\n    //the boolean field is used to verify that a worker cannot join the task twice\r\n    struct Worker {\r\n        bool registered;\r\n        uint8 workerId;\r\n    }\r\n\r\n    //struct representing the evaluation submitted by a worker at the end of the evaluation phase\r\n    struct SubmittedEval {\r\n        address workerAddress;\r\n        address[] addressScored;\r\n        uint16[] scores;\r\n        //uint16 score; //only for testing\r\n    }\r\n\r\n    \r\n    uint8 private numRounds; //number of rounds of the fl task\r\n    uint8 private round; //number of the actual round\r\n    uint8 private numWorkers = 0;\r\n    mapping(address => Worker) private workers; //to each worker address is associated his worker object\r\n    SubmittedEval[] private roundScores; //to each round are associated the submitted evaluations\r\n    address[] private roundTopK;\r\n    address public immutable requester;\r\n    string private modelURI; //URI of the model pushed by the requester at initialization phase\r\n    uint256 roundMoney;\r\n    TaskStatus public taskStatus;\r\n\r\n    constructor() {\r\n        requester = msg.sender;\r\n        taskStatus = TaskStatus.Pending;\r\n    }\r\n\r\n    // function modifier allowing the function to be called only by the requester\r\n    modifier onlyRequester() {\r\n        require(msg.sender == requester, \"This operation can be performed only by the task requester\");\r\n        _;\r\n    }\r\n\r\n    // function modifier allowing the function to be called only by the workers\r\n    modifier onlyWorker() {\r\n        require(workers[msg.sender].registered, \"This operation can be performed only by the task workers\");\r\n        _;\r\n    }\r\n\r\n    // function modifier allowing the function to be called only by requester and workers\r\n    modifier restrictAccess() {\r\n        require((workers[msg.sender].registered || msg.sender == requester), \"You do not have the rights to perform this operation\");\r\n        _;\r\n    }\r\n\r\n    // function modifier allowing the function to be called only if the task has been initialized\r\n    modifier taskInitialized(){\r\n        require(uint(taskStatus) == 1, \"Task not initialized\");\r\n        _;\r\n    }\r\n\r\n    // function modifier allowing the function to be called only if the task has started\r\n    modifier taskRunning(){\r\n        require(uint(taskStatus) == 2, \"Task not running\");\r\n        _;\r\n    }\r\n\r\n    // function called to initialize the task, mandatory to put a deposit in the smart contract\r\n    function initializeTask(string memory _modelURI, uint8 _numRounds) public payable onlyRequester{\r\n        require(msg.value != 0, \"Cannot initialize contract without deposit\");\r\n        modelURI = _modelURI;\r\n        numRounds = _numRounds;\r\n        roundMoney = msg.value / numRounds;\r\n        taskStatus = TaskStatus.Initialized;\r\n    }\r\n\r\n    // start the task\r\n    function startTask() public onlyRequester {\r\n        taskStatus = TaskStatus.Running;\r\n        round = 1;\r\n    }\r\n\r\n    // advance round\r\n    function nextRound() public onlyRequester taskRunning {\r\n        delete roundScores;\r\n        round++;\r\n    }\r\n\r\n    // get the number of actual round\r\n    function getRound() public taskRunning view returns (uint8){\r\n        return round;\r\n    }\r\n\r\n    // get the number of workers\r\n    function getNumWorkers() public view returns (uint8){\r\n        return numWorkers;\r\n    }\r\n\r\n    // get the amount of money deposited in the smart contract\r\n    function getDeposit() public onlyRequester view returns (uint) {\r\n        return address(this).balance;\r\n    }\r\n\r\n    // get the address of the requester\r\n    function getRequester() public view returns (address){\r\n        return requester;\r\n    }\r\n\r\n    // get the URI of the model\r\n    function getModelURI() public view restrictAccess returns (string memory){\r\n        return modelURI;\r\n    }\r\n\r\n    function joinTask() public taskInitialized returns (string memory) {\r\n        require(!workers[msg.sender].registered, \"Worker is already registered\");\r\n        require(msg.sender != requester, \"Requester cannot be a worker!\");\r\n        Worker memory worker;\r\n        worker.registered = true;\r\n        worker.workerId = numWorkers + 1;\r\n        workers[msg.sender] = worker;\r\n        numWorkers++;\r\n        return modelURI;\r\n    }\r\n\r\n    function removeWorker() public {\r\n        delete workers[msg.sender];\r\n        numWorkers--;\r\n    }\r\n\r\n    function submitScore(address[] memory _workers, uint16[] memory _scores) public onlyWorker taskRunning {\r\n        roundScores.push(SubmittedEval({\r\n            workerAddress: msg.sender,\r\n            addressScored: _workers,\r\n            scores: _scores\r\n        }));\r\n    }\r\n\r\n    function getSubmissionsNumber() public onlyRequester view returns (uint8){\r\n        return uint8(roundScores.length);\r\n    }\r\n\r\n    function getSubmissions() public onlyRequester taskRunning view returns (SubmittedEval[] memory) {\r\n        SubmittedEval[] memory evals = new SubmittedEval[](getSubmissionsNumber());\r\n        for (uint8 i = 0; i < roundScores.length; i++){\r\n            evals[i] = roundScores[i];\r\n        }\r\n        return evals;\r\n    }\r\n\r\n    function submitRoundTopK(address[] memory _topK) public onlyRequester {\r\n        roundTopK = _topK;\r\n    }\r\n\r\n    function distributeRewards() public onlyRequester payable {\r\n        uint256 amountToDistribute = roundMoney;\r\n        uint8 usersToReward = uint8(roundTopK.length);\r\n        uint8 usersRewarded;\r\n        for(usersRewarded = 0; usersRewarded < usersToReward-3; usersRewarded++){\r\n            payable(roundTopK[usersRewarded]).transfer(amountToDistribute / 2);\r\n            amountToDistribute = amountToDistribute / 2;\r\n        }\r\n        amountToDistribute = amountToDistribute / 2;\r\n        uint256 finalPortion = amountToDistribute / usersToReward;\r\n        payable(roundTopK[usersRewarded]).transfer(amountToDistribute + finalPortion);\r\n        payable(roundTopK[usersRewarded + 1]).transfer(amountToDistribute - finalPortion);\r\n    }\r\n}\r\n",
  "sourcePath": "/home/developer/faijan/data/FL_Tensorflow_MNIST/client/contracts/FLTask.sol",
  "compiler": {
    "name": "solc",
    "version": "0.8.13+commit.abaa5c0e.Emscripten.clang"
  },
  "schemaVersion": "3.4.13",
  "updatedAt": "2023-03-29T23:57:18.378Z",
  "networkType": "ethereum",
  "devdoc": {
    "kind": "dev",
    "methods": {},
    "version": 1
  },
  "userdoc": {
    "kind": "user",
    "methods": {},
    "version": 1
  }
}